{"contracts/counter.sol":{"counterDAPP":{"abi":[{"inputs":[{"internalType":"uint256","name":"initialvalue","type":"uint256"}],"stateMutability":"nonpayable","type":"constructor"},{"anonymous":false,"inputs":[{"indexed":false,"internalType":"uint256","name":"counter","type":"uint256"}],"name":"counterUpdated","type":"event"},{"inputs":[],"name":"counter","outputs":[{"internalType":"uint256","name":"","type":"uint256"}],"stateMutability":"view","type":"function"},{"inputs":[],"name":"decrement","outputs":[],"stateMutability":"nonpayable","type":"function"},{"inputs":[{"internalType":"uint256","name":"value","type":"uint256"}],"name":"decrementby","outputs":[],"stateMutability":"nonpayable","type":"function"},{"inputs":[],"name":"getCountervalue","outputs":[{"internalType":"uint256","name":"","type":"uint256"}],"stateMutability":"view","type":"function"},{"inputs":[],"name":"increament","outputs":[],"stateMutability":"nonpayable","type":"function"},{"inputs":[{"internalType":"uint256","name":"value","type":"uint256"}],"name":"increamentby","outputs":[],"stateMutability":"nonpayable","type":"function"},{"inputs":[],"name":"reset","outputs":[],"stateMutability":"nonpayable","type":"function"}],"evm":{"bytecode":{"linkReferences":{},"object":"6080604052348015600f57600080fd5b506040516107923803806107928339818101604052810190602f91906071565b80600081905550506099565b600080fd5b6000819050919050565b6051816040565b8114605b57600080fd5b50565b600081519050606b81604a565b92915050565b6000602082840312156084576083603b565b5b6000609084828501605e565b91505092915050565b6106ea806100a86000396000f3fe608060405234801561001057600080fd5b506004361061007d5760003560e01c80637ab844da1161005b5780637ab844da146100b4578063b2878d07146100d2578063d1e14e5e146100ee578063d826f88f1461010a5761007d565b80632baeceb71461008257806358968e881461008c57806361bc221a14610096575b600080fd5b61008a610114565b005b6100946101b9565b005b61009e61027d565b6040516100ab919061044a565b60405180910390f35b6100bc610283565b6040516100c9919061044a565b60405180910390f35b6100ec60048036038101906100e79190610496565b61028c565b005b61010860048036038101906101039190610496565b61032e565b005b6101126103ef565b005b600160008160005461012691906104f2565b11610166576040517f08c379a000000000000000000000000000000000000000000000000000000000815260040161015d90610583565b60405180910390fd5b600080815480929190610178906105a3565b91905055507f5b191591f1e6b6ea9ade63a6f8c1000a6f86ab9777dfb8b03881460b260858566000546040516101ae919061044a565b60405180910390a150565b60017fffffffffffffffffffffffffffffffffffffffffffffffffffffffffffffffff816000546101ea91906105cc565b1061022a576040517f08c379a00000000000000000000000000000000000000000000000000000000081526004016102219061064c565b60405180910390fd5b60008081548092919061023c9061066c565b91905055507f5b191591f1e6b6ea9ade63a6f8c1000a6f86ab9777dfb8b03881460b26085856600054604051610272919061044a565b60405180910390a150565b60005481565b60008054905090565b8060008160005461029d91906104f2565b116102dd576040517f08c379a00000000000000000000000000000000000000000000000000000000081526004016102d490610583565b60405180910390fd5b816000546102eb91906104f2565b6000819055507f5b191591f1e6b6ea9ade63a6f8c1000a6f86ab9777dfb8b03881460b26085856600054604051610322919061044a565b60405180910390a15050565b807fffffffffffffffffffffffffffffffffffffffffffffffffffffffffffffffff8160005461035e91906105cc565b1061039e576040517f08c379a00000000000000000000000000000000000000000000000000000000081526004016103959061064c565b60405180910390fd5b816000546103ac91906105cc565b6000819055507f5b191591f1e6b6ea9ade63a6f8c1000a6f86ab9777dfb8b03881460b260858566000546040516103e3919061044a565b60405180910390a15050565b600080819055507f5b191591f1e6b6ea9ade63a6f8c1000a6f86ab9777dfb8b03881460b26085856600054604051610427919061044a565b60405180910390a1565b6000819050919050565b61044481610431565b82525050565b600060208201905061045f600083018461043b565b92915050565b600080fd5b61047381610431565b811461047e57600080fd5b50565b6000813590506104908161046a565b92915050565b6000602082840312156104ac576104ab610465565b5b60006104ba84828501610481565b91505092915050565b7f4e487b7100000000000000000000000000000000000000000000000000000000600052601160045260246000fd5b60006104fd82610431565b915061050883610431565b92508282039050818111156105205761051f6104c3565b5b92915050565b600082825260208201905092915050565b7f4d696e2072656163686564000000000000000000000000000000000000000000600082015250565b600061056d600b83610526565b915061057882610537565b602082019050919050565b6000602082019050818103600083015261059c81610560565b9050919050565b60006105ae82610431565b9150600082036105c1576105c06104c3565b5b600182039050919050565b60006105d782610431565b91506105e283610431565b92508282019050808211156105fa576105f96104c3565b5b92915050565b7f4d61782072656163686564000000000000000000000000000000000000000000600082015250565b6000610636600b83610526565b915061064182610600565b602082019050919050565b6000602082019050818103600083015261066581610629565b9050919050565b600061067782610431565b91507fffffffffffffffffffffffffffffffffffffffffffffffffffffffffffffffff82036106a9576106a86104c3565b5b60018201905091905056fea26469706673582212202502958c49088bf5c4ef75a1913ced62ef3919da62179b52277e5f435c7f86db64736f6c634300081b0033","opcodes":"PUSH1 0x80 PUSH1 0x40 MSTORE CALLVALUE DUP1 ISZERO PUSH1 0xF JUMPI PUSH1 0x0 DUP1 REVERT JUMPDEST POP PUSH1 0x40 MLOAD PUSH2 0x792 CODESIZE SUB DUP1 PUSH2 0x792 DUP4 CODECOPY DUP2 DUP2 ADD PUSH1 0x40 MSTORE DUP2 ADD SWAP1 PUSH1 0x2F SWAP2 SWAP1 PUSH1 0x71 JUMP JUMPDEST DUP1 PUSH1 0x0 DUP2 SWAP1 SSTORE POP POP PUSH1 0x99 JUMP JUMPDEST PUSH1 0x0 DUP1 REVERT JUMPDEST PUSH1 0x0 DUP2 SWAP1 POP SWAP2 SWAP1 POP JUMP JUMPDEST PUSH1 0x51 DUP2 PUSH1 0x40 JUMP JUMPDEST DUP2 EQ PUSH1 0x5B JUMPI PUSH1 0x0 DUP1 REVERT JUMPDEST POP JUMP JUMPDEST PUSH1 0x0 DUP2 MLOAD SWAP1 POP PUSH1 0x6B DUP2 PUSH1 0x4A JUMP JUMPDEST SWAP3 SWAP2 POP POP JUMP JUMPDEST PUSH1 0x0 PUSH1 0x20 DUP3 DUP5 SUB SLT ISZERO PUSH1 0x84 JUMPI PUSH1 0x83 PUSH1 0x3B JUMP JUMPDEST JUMPDEST PUSH1 0x0 PUSH1 0x90 DUP5 DUP3 DUP6 ADD PUSH1 0x5E JUMP JUMPDEST SWAP2 POP POP SWAP3 SWAP2 POP POP JUMP JUMPDEST PUSH2 0x6EA DUP1 PUSH2 0xA8 PUSH1 0x0 CODECOPY PUSH1 0x0 RETURN INVALID PUSH1 0x80 PUSH1 0x40 MSTORE CALLVALUE DUP1 ISZERO PUSH2 0x10 JUMPI PUSH1 0x0 DUP1 REVERT JUMPDEST POP PUSH1 0x4 CALLDATASIZE LT PUSH2 0x7D JUMPI PUSH1 0x0 CALLDATALOAD PUSH1 0xE0 SHR DUP1 PUSH4 0x7AB844DA GT PUSH2 0x5B JUMPI DUP1 PUSH4 0x7AB844DA EQ PUSH2 0xB4 JUMPI DUP1 PUSH4 0xB2878D07 EQ PUSH2 0xD2 JUMPI DUP1 PUSH4 0xD1E14E5E EQ PUSH2 0xEE JUMPI DUP1 PUSH4 0xD826F88F EQ PUSH2 0x10A JUMPI PUSH2 0x7D JUMP JUMPDEST DUP1 PUSH4 0x2BAECEB7 EQ PUSH2 0x82 JUMPI DUP1 PUSH4 0x58968E88 EQ PUSH2 0x8C JUMPI DUP1 PUSH4 0x61BC221A EQ PUSH2 0x96 JUMPI JUMPDEST PUSH1 0x0 DUP1 REVERT JUMPDEST PUSH2 0x8A PUSH2 0x114 JUMP JUMPDEST STOP JUMPDEST PUSH2 0x94 PUSH2 0x1B9 JUMP JUMPDEST STOP JUMPDEST PUSH2 0x9E PUSH2 0x27D JUMP JUMPDEST PUSH1 0x40 MLOAD PUSH2 0xAB SWAP2 SWAP1 PUSH2 0x44A JUMP JUMPDEST PUSH1 0x40 MLOAD DUP1 SWAP2 SUB SWAP1 RETURN JUMPDEST PUSH2 0xBC PUSH2 0x283 JUMP JUMPDEST PUSH1 0x40 MLOAD PUSH2 0xC9 SWAP2 SWAP1 PUSH2 0x44A JUMP JUMPDEST PUSH1 0x40 MLOAD DUP1 SWAP2 SUB SWAP1 RETURN JUMPDEST PUSH2 0xEC PUSH1 0x4 DUP1 CALLDATASIZE SUB DUP2 ADD SWAP1 PUSH2 0xE7 SWAP2 SWAP1 PUSH2 0x496 JUMP JUMPDEST PUSH2 0x28C JUMP JUMPDEST STOP JUMPDEST PUSH2 0x108 PUSH1 0x4 DUP1 CALLDATASIZE SUB DUP2 ADD SWAP1 PUSH2 0x103 SWAP2 SWAP1 PUSH2 0x496 JUMP JUMPDEST PUSH2 0x32E JUMP JUMPDEST STOP JUMPDEST PUSH2 0x112 PUSH2 0x3EF JUMP JUMPDEST STOP JUMPDEST PUSH1 0x1 PUSH1 0x0 DUP2 PUSH1 0x0 SLOAD PUSH2 0x126 SWAP2 SWAP1 PUSH2 0x4F2 JUMP JUMPDEST GT PUSH2 0x166 JUMPI PUSH1 0x40 MLOAD PUSH32 0x8C379A000000000000000000000000000000000000000000000000000000000 DUP2 MSTORE PUSH1 0x4 ADD PUSH2 0x15D SWAP1 PUSH2 0x583 JUMP JUMPDEST PUSH1 0x40 MLOAD DUP1 SWAP2 SUB SWAP1 REVERT JUMPDEST PUSH1 0x0 DUP1 DUP2 SLOAD DUP1 SWAP3 SWAP2 SWAP1 PUSH2 0x178 SWAP1 PUSH2 0x5A3 JUMP JUMPDEST SWAP2 SWAP1 POP SSTORE POP PUSH32 0x5B191591F1E6B6EA9ADE63A6F8C1000A6F86AB9777DFB8B03881460B26085856 PUSH1 0x0 SLOAD PUSH1 0x40 MLOAD PUSH2 0x1AE SWAP2 SWAP1 PUSH2 0x44A JUMP JUMPDEST PUSH1 0x40 MLOAD DUP1 SWAP2 SUB SWAP1 LOG1 POP JUMP JUMPDEST PUSH1 0x1 PUSH32 0xFFFFFFFFFFFFFFFFFFFFFFFFFFFFFFFFFFFFFFFFFFFFFFFFFFFFFFFFFFFFFFFF DUP2 PUSH1 0x0 SLOAD PUSH2 0x1EA SWAP2 SWAP1 PUSH2 0x5CC JUMP JUMPDEST LT PUSH2 0x22A JUMPI PUSH1 0x40 MLOAD PUSH32 0x8C379A000000000000000000000000000000000000000000000000000000000 DUP2 MSTORE PUSH1 0x4 ADD PUSH2 0x221 SWAP1 PUSH2 0x64C JUMP JUMPDEST PUSH1 0x40 MLOAD DUP1 SWAP2 SUB SWAP1 REVERT JUMPDEST PUSH1 0x0 DUP1 DUP2 SLOAD DUP1 SWAP3 SWAP2 SWAP1 PUSH2 0x23C SWAP1 PUSH2 0x66C JUMP JUMPDEST SWAP2 SWAP1 POP SSTORE POP PUSH32 0x5B191591F1E6B6EA9ADE63A6F8C1000A6F86AB9777DFB8B03881460B26085856 PUSH1 0x0 SLOAD PUSH1 0x40 MLOAD PUSH2 0x272 SWAP2 SWAP1 PUSH2 0x44A JUMP JUMPDEST PUSH1 0x40 MLOAD DUP1 SWAP2 SUB SWAP1 LOG1 POP JUMP JUMPDEST PUSH1 0x0 SLOAD DUP2 JUMP JUMPDEST PUSH1 0x0 DUP1 SLOAD SWAP1 POP SWAP1 JUMP JUMPDEST DUP1 PUSH1 0x0 DUP2 PUSH1 0x0 SLOAD PUSH2 0x29D SWAP2 SWAP1 PUSH2 0x4F2 JUMP JUMPDEST GT PUSH2 0x2DD JUMPI PUSH1 0x40 MLOAD PUSH32 0x8C379A000000000000000000000000000000000000000000000000000000000 DUP2 MSTORE PUSH1 0x4 ADD PUSH2 0x2D4 SWAP1 PUSH2 0x583 JUMP JUMPDEST PUSH1 0x40 MLOAD DUP1 SWAP2 SUB SWAP1 REVERT JUMPDEST DUP2 PUSH1 0x0 SLOAD PUSH2 0x2EB SWAP2 SWAP1 PUSH2 0x4F2 JUMP JUMPDEST PUSH1 0x0 DUP2 SWAP1 SSTORE POP PUSH32 0x5B191591F1E6B6EA9ADE63A6F8C1000A6F86AB9777DFB8B03881460B26085856 PUSH1 0x0 SLOAD PUSH1 0x40 MLOAD PUSH2 0x322 SWAP2 SWAP1 PUSH2 0x44A JUMP JUMPDEST PUSH1 0x40 MLOAD DUP1 SWAP2 SUB SWAP1 LOG1 POP POP JUMP JUMPDEST DUP1 PUSH32 0xFFFFFFFFFFFFFFFFFFFFFFFFFFFFFFFFFFFFFFFFFFFFFFFFFFFFFFFFFFFFFFFF DUP2 PUSH1 0x0 SLOAD PUSH2 0x35E SWAP2 SWAP1 PUSH2 0x5CC JUMP JUMPDEST LT PUSH2 0x39E JUMPI PUSH1 0x40 MLOAD PUSH32 0x8C379A000000000000000000000000000000000000000000000000000000000 DUP2 MSTORE PUSH1 0x4 ADD PUSH2 0x395 SWAP1 PUSH2 0x64C JUMP JUMPDEST PUSH1 0x40 MLOAD DUP1 SWAP2 SUB SWAP1 REVERT JUMPDEST DUP2 PUSH1 0x0 SLOAD PUSH2 0x3AC SWAP2 SWAP1 PUSH2 0x5CC JUMP JUMPDEST PUSH1 0x0 DUP2 SWAP1 SSTORE POP PUSH32 0x5B191591F1E6B6EA9ADE63A6F8C1000A6F86AB9777DFB8B03881460B26085856 PUSH1 0x0 SLOAD PUSH1 0x40 MLOAD PUSH2 0x3E3 SWAP2 SWAP1 PUSH2 0x44A JUMP JUMPDEST PUSH1 0x40 MLOAD DUP1 SWAP2 SUB SWAP1 LOG1 POP POP JUMP JUMPDEST PUSH1 0x0 DUP1 DUP2 SWAP1 SSTORE POP PUSH32 0x5B191591F1E6B6EA9ADE63A6F8C1000A6F86AB9777DFB8B03881460B26085856 PUSH1 0x0 SLOAD PUSH1 0x40 MLOAD PUSH2 0x427 SWAP2 SWAP1 PUSH2 0x44A JUMP JUMPDEST PUSH1 0x40 MLOAD DUP1 SWAP2 SUB SWAP1 LOG1 JUMP JUMPDEST PUSH1 0x0 DUP2 SWAP1 POP SWAP2 SWAP1 POP JUMP JUMPDEST PUSH2 0x444 DUP2 PUSH2 0x431 JUMP JUMPDEST DUP3 MSTORE POP POP JUMP JUMPDEST PUSH1 0x0 PUSH1 0x20 DUP3 ADD SWAP1 POP PUSH2 0x45F PUSH1 0x0 DUP4 ADD DUP5 PUSH2 0x43B JUMP JUMPDEST SWAP3 SWAP2 POP POP JUMP JUMPDEST PUSH1 0x0 DUP1 REVERT JUMPDEST PUSH2 0x473 DUP2 PUSH2 0x431 JUMP JUMPDEST DUP2 EQ PUSH2 0x47E JUMPI PUSH1 0x0 DUP1 REVERT JUMPDEST POP JUMP JUMPDEST PUSH1 0x0 DUP2 CALLDATALOAD SWAP1 POP PUSH2 0x490 DUP2 PUSH2 0x46A JUMP JUMPDEST SWAP3 SWAP2 POP POP JUMP JUMPDEST PUSH1 0x0 PUSH1 0x20 DUP3 DUP5 SUB SLT ISZERO PUSH2 0x4AC JUMPI PUSH2 0x4AB PUSH2 0x465 JUMP JUMPDEST JUMPDEST PUSH1 0x0 PUSH2 0x4BA DUP5 DUP3 DUP6 ADD PUSH2 0x481 JUMP JUMPDEST SWAP2 POP POP SWAP3 SWAP2 POP POP JUMP JUMPDEST PUSH32 0x4E487B7100000000000000000000000000000000000000000000000000000000 PUSH1 0x0 MSTORE PUSH1 0x11 PUSH1 0x4 MSTORE PUSH1 0x24 PUSH1 0x0 REVERT JUMPDEST PUSH1 0x0 PUSH2 0x4FD DUP3 PUSH2 0x431 JUMP JUMPDEST SWAP2 POP PUSH2 0x508 DUP4 PUSH2 0x431 JUMP JUMPDEST SWAP3 POP DUP3 DUP3 SUB SWAP1 POP DUP2 DUP2 GT ISZERO PUSH2 0x520 JUMPI PUSH2 0x51F PUSH2 0x4C3 JUMP JUMPDEST JUMPDEST SWAP3 SWAP2 POP POP JUMP JUMPDEST PUSH1 0x0 DUP3 DUP3 MSTORE PUSH1 0x20 DUP3 ADD SWAP1 POP SWAP3 SWAP2 POP POP JUMP JUMPDEST PUSH32 0x4D696E2072656163686564000000000000000000000000000000000000000000 PUSH1 0x0 DUP3 ADD MSTORE POP JUMP JUMPDEST PUSH1 0x0 PUSH2 0x56D PUSH1 0xB DUP4 PUSH2 0x526 JUMP JUMPDEST SWAP2 POP PUSH2 0x578 DUP3 PUSH2 0x537 JUMP JUMPDEST PUSH1 0x20 DUP3 ADD SWAP1 POP SWAP2 SWAP1 POP JUMP JUMPDEST PUSH1 0x0 PUSH1 0x20 DUP3 ADD SWAP1 POP DUP2 DUP2 SUB PUSH1 0x0 DUP4 ADD MSTORE PUSH2 0x59C DUP2 PUSH2 0x560 JUMP JUMPDEST SWAP1 POP SWAP2 SWAP1 POP JUMP JUMPDEST PUSH1 0x0 PUSH2 0x5AE DUP3 PUSH2 0x431 JUMP JUMPDEST SWAP2 POP PUSH1 0x0 DUP3 SUB PUSH2 0x5C1 JUMPI PUSH2 0x5C0 PUSH2 0x4C3 JUMP JUMPDEST JUMPDEST PUSH1 0x1 DUP3 SUB SWAP1 POP SWAP2 SWAP1 POP JUMP JUMPDEST PUSH1 0x0 PUSH2 0x5D7 DUP3 PUSH2 0x431 JUMP JUMPDEST SWAP2 POP PUSH2 0x5E2 DUP4 PUSH2 0x431 JUMP JUMPDEST SWAP3 POP DUP3 DUP3 ADD SWAP1 POP DUP1 DUP3 GT ISZERO PUSH2 0x5FA JUMPI PUSH2 0x5F9 PUSH2 0x4C3 JUMP JUMPDEST JUMPDEST SWAP3 SWAP2 POP POP JUMP JUMPDEST PUSH32 0x4D61782072656163686564000000000000000000000000000000000000000000 PUSH1 0x0 DUP3 ADD MSTORE POP JUMP JUMPDEST PUSH1 0x0 PUSH2 0x636 PUSH1 0xB DUP4 PUSH2 0x526 JUMP JUMPDEST SWAP2 POP PUSH2 0x641 DUP3 PUSH2 0x600 JUMP JUMPDEST PUSH1 0x20 DUP3 ADD SWAP1 POP SWAP2 SWAP1 POP JUMP JUMPDEST PUSH1 0x0 PUSH1 0x20 DUP3 ADD SWAP1 POP DUP2 DUP2 SUB PUSH1 0x0 DUP4 ADD MSTORE PUSH2 0x665 DUP2 PUSH2 0x629 JUMP JUMPDEST SWAP1 POP SWAP2 SWAP1 POP JUMP JUMPDEST PUSH1 0x0 PUSH2 0x677 DUP3 PUSH2 0x431 JUMP JUMPDEST SWAP2 POP PUSH32 0xFFFFFFFFFFFFFFFFFFFFFFFFFFFFFFFFFFFFFFFFFFFFFFFFFFFFFFFFFFFFFFFF DUP3 SUB PUSH2 0x6A9 JUMPI PUSH2 0x6A8 PUSH2 0x4C3 JUMP JUMPDEST JUMPDEST PUSH1 0x1 DUP3 ADD SWAP1 POP SWAP2 SWAP1 POP JUMP INVALID LOG2 PUSH5 0x6970667358 0x22 SLT KECCAK256 0x25 MUL SWAP6 DUP13 BLOBHASH ADDMOD DUP12 CREATE2 0xC4 0xEF PUSH22 0xA1913CED62EF3919DA62179B52277E5F435C7F86DB64 PUSH20 0x6F6C634300081B00330000000000000000000000 "},"methodIdentifiers":{"counter()":"61bc221a","decrement()":"2baeceb7","decrementby(uint256)":"b2878d07","getCountervalue()":"7ab844da","increament()":"58968e88","increamentby(uint256)":"d1e14e5e","reset()":"d826f88f"}}}}}