{
  "_format": "hh-sol-artifact-1",
  "contractName": "counterDAPP",
  "sourceName": "contracts/counter.sol",
  "abi": [
    {
      "inputs": [
        {
          "internalType": "uint256",
          "name": "initialvalue",
          "type": "uint256"
        }
      ],
      "stateMutability": "nonpayable",
      "type": "constructor"
    },
    {
      "anonymous": false,
      "inputs": [
        {
          "indexed": false,
          "internalType": "uint256",
          "name": "counter",
          "type": "uint256"
        }
      ],
      "name": "counterUpdated",
      "type": "event"
    },
    {
      "inputs": [],
      "name": "counter",
      "outputs": [
        {
          "internalType": "uint256",
          "name": "",
          "type": "uint256"
        }
      ],
      "stateMutability": "view",
      "type": "function"
    },
    {
      "inputs": [],
      "name": "decrement",
      "outputs": [],
      "stateMutability": "nonpayable",
      "type": "function"
    },
    {
      "inputs": [
        {
          "internalType": "uint256",
          "name": "value",
          "type": "uint256"
        }
      ],
      "name": "decrementby",
      "outputs": [],
      "stateMutability": "nonpayable",
      "type": "function"
    },
    {
      "inputs": [],
      "name": "getCountervalue",
      "outputs": [
        {
          "internalType": "uint256",
          "name": "",
          "type": "uint256"
        }
      ],
      "stateMutability": "view",
      "type": "function"
    },
    {
      "inputs": [],
      "name": "increament",
      "outputs": [],
      "stateMutability": "nonpayable",
      "type": "function"
    },
    {
      "inputs": [
        {
          "internalType": "uint256",
          "name": "value",
          "type": "uint256"
        }
      ],
      "name": "increamentby",
      "outputs": [],
      "stateMutability": "nonpayable",
      "type": "function"
    },
    {
      "inputs": [],
      "name": "reset",
      "outputs": [],
      "stateMutability": "nonpayable",
      "type": "function"
    }
  ],
  "bytecode": "0x6080604052348015600f57600080fd5b506040516107923803806107928339818101604052810190602f91906071565b80600081905550506099565b600080fd5b6000819050919050565b6051816040565b8114605b57600080fd5b50565b600081519050606b81604a565b92915050565b6000602082840312156084576083603b565b5b6000609084828501605e565b91505092915050565b6106ea806100a86000396000f3fe608060405234801561001057600080fd5b506004361061007d5760003560e01c80637ab844da1161005b5780637ab844da146100b4578063b2878d07146100d2578063d1e14e5e146100ee578063d826f88f1461010a5761007d565b80632baeceb71461008257806358968e881461008c57806361bc221a14610096575b600080fd5b61008a610114565b005b6100946101b9565b005b61009e61027d565b6040516100ab919061044a565b60405180910390f35b6100bc610283565b6040516100c9919061044a565b60405180910390f35b6100ec60048036038101906100e79190610496565b61028c565b005b61010860048036038101906101039190610496565b61032e565b005b6101126103ef565b005b600160008160005461012691906104f2565b11610166576040517f08c379a000000000000000000000000000000000000000000000000000000000815260040161015d90610583565b60405180910390fd5b600080815480929190610178906105a3565b91905055507f5b191591f1e6b6ea9ade63a6f8c1000a6f86ab9777dfb8b03881460b260858566000546040516101ae919061044a565b60405180910390a150565b60017fffffffffffffffffffffffffffffffffffffffffffffffffffffffffffffffff816000546101ea91906105cc565b1061022a576040517f08c379a00000000000000000000000000000000000000000000000000000000081526004016102219061064c565b60405180910390fd5b60008081548092919061023c9061066c565b91905055507f5b191591f1e6b6ea9ade63a6f8c1000a6f86ab9777dfb8b03881460b26085856600054604051610272919061044a565b60405180910390a150565b60005481565b60008054905090565b8060008160005461029d91906104f2565b116102dd576040517f08c379a00000000000000000000000000000000000000000000000000000000081526004016102d490610583565b60405180910390fd5b816000546102eb91906104f2565b6000819055507f5b191591f1e6b6ea9ade63a6f8c1000a6f86ab9777dfb8b03881460b26085856600054604051610322919061044a565b60405180910390a15050565b807fffffffffffffffffffffffffffffffffffffffffffffffffffffffffffffffff8160005461035e91906105cc565b1061039e576040517f08c379a00000000000000000000000000000000000000000000000000000000081526004016103959061064c565b60405180910390fd5b816000546103ac91906105cc565b6000819055507f5b191591f1e6b6ea9ade63a6f8c1000a6f86ab9777dfb8b03881460b260858566000546040516103e3919061044a565b60405180910390a15050565b600080819055507f5b191591f1e6b6ea9ade63a6f8c1000a6f86ab9777dfb8b03881460b26085856600054604051610427919061044a565b60405180910390a1565b6000819050919050565b61044481610431565b82525050565b600060208201905061045f600083018461043b565b92915050565b600080fd5b61047381610431565b811461047e57600080fd5b50565b6000813590506104908161046a565b92915050565b6000602082840312156104ac576104ab610465565b5b60006104ba84828501610481565b91505092915050565b7f4e487b7100000000000000000000000000000000000000000000000000000000600052601160045260246000fd5b60006104fd82610431565b915061050883610431565b92508282039050818111156105205761051f6104c3565b5b92915050565b600082825260208201905092915050565b7f4d696e2072656163686564000000000000000000000000000000000000000000600082015250565b600061056d600b83610526565b915061057882610537565b602082019050919050565b6000602082019050818103600083015261059c81610560565b9050919050565b60006105ae82610431565b9150600082036105c1576105c06104c3565b5b600182039050919050565b60006105d782610431565b91506105e283610431565b92508282019050808211156105fa576105f96104c3565b5b92915050565b7f4d61782072656163686564000000000000000000000000000000000000000000600082015250565b6000610636600b83610526565b915061064182610600565b602082019050919050565b6000602082019050818103600083015261066581610629565b9050919050565b600061067782610431565b91507fffffffffffffffffffffffffffffffffffffffffffffffffffffffffffffffff82036106a9576106a86104c3565b5b60018201905091905056fea26469706673582212202502958c49088bf5c4ef75a1913ced62ef3919da62179b52277e5f435c7f86db64736f6c634300081b0033",
  "linkReferences": {},
  "deployedLinkReferences": {}
}